{
  "_format": "hh-sol-artifact-1",
  "contractName": "RentalAgreement",
  "sourceName": "contracts/RentalAgreement.sol",
  "abi": [
    {
      "inputs": [
        {
          "internalType": "address",
          "name": "_admin",
          "type": "address"
        },
        {
          "internalType": "address",
          "name": "_owner",
          "type": "address"
        },
        {
          "internalType": "address",
          "name": "_user",
          "type": "address"
        },
        {
          "internalType": "uint256",
          "name": "_vehicleId",
          "type": "uint256"
        },
        {
          "internalType": "uint256",
          "name": "_rentAmount",
          "type": "uint256"
        },
        {
          "internalType": "uint256",
          "name": "_depositAmount",
          "type": "uint256"
        },
        {
          "internalType": "address",
          "name": "_tokenAddress",
          "type": "address"
        }
      ],
      "stateMutability": "nonpayable",
      "type": "constructor"
    },
    {
      "anonymous": false,
      "inputs": [
        {
          "indexed": true,
          "internalType": "address",
          "name": "user",
          "type": "address"
        },
        {
          "indexed": false,
          "internalType": "uint256",
          "name": "startDate",
          "type": "uint256"
        },
        {
          "indexed": false,
          "internalType": "uint256",
          "name": "endDate",
          "type": "uint256"
        }
      ],
      "name": "AgreementActivated",
      "type": "event"
    },
    {
      "anonymous": false,
      "inputs": [
        {
          "indexed": true,
          "internalType": "address",
          "name": "initiator",
          "type": "address"
        },
        {
          "indexed": false,
          "internalType": "uint256",
          "name": "date",
          "type": "uint256"
        }
      ],
      "name": "AgreementCancelled",
      "type": "event"
    },
    {
      "anonymous": false,
      "inputs": [
        {
          "indexed": true,
          "internalType": "address",
          "name": "owner",
          "type": "address"
        },
        {
          "indexed": false,
          "internalType": "uint256",
          "name": "date",
          "type": "uint256"
        }
      ],
      "name": "AgreementCompleted",
      "type": "event"
    },
    {
      "anonymous": false,
      "inputs": [
        {
          "indexed": false,
          "internalType": "string",
          "name": "ipfsHash",
          "type": "string"
        }
      ],
      "name": "ContractFileHashSet",
      "type": "event"
    },
    {
      "anonymous": false,
      "inputs": [
        {
          "indexed": true,
          "internalType": "address",
          "name": "user",
          "type": "address"
        },
        {
          "indexed": false,
          "internalType": "uint256",
          "name": "amount",
          "type": "uint256"
        },
        {
          "indexed": false,
          "internalType": "uint256",
          "name": "date",
          "type": "uint256"
        }
      ],
      "name": "PaymentMade",
      "type": "event"
    },
    {
      "inputs": [
        {
          "internalType": "uint256",
          "name": "_durationDays",
          "type": "uint256"
        }
      ],
      "name": "activateAgreement",
      "outputs": [],
      "stateMutability": "nonpayable",
      "type": "function"
    },
    {
      "inputs": [],
      "name": "admin",
      "outputs": [
        {
          "internalType": "address",
          "name": "",
          "type": "address"
        }
      ],
      "stateMutability": "view",
      "type": "function"
    },
    {
      "inputs": [],
      "name": "cancelAgreement",
      "outputs": [],
      "stateMutability": "nonpayable",
      "type": "function"
    },
    {
      "inputs": [],
      "name": "completeAgreement",
      "outputs": [],
      "stateMutability": "nonpayable",
      "type": "function"
    },
    {
      "inputs": [],
      "name": "depositAmount",
      "outputs": [
        {
          "internalType": "uint256",
          "name": "",
          "type": "uint256"
        }
      ],
      "stateMutability": "view",
      "type": "function"
    },
    {
      "inputs": [],
      "name": "endDate",
      "outputs": [
        {
          "internalType": "uint256",
          "name": "",
          "type": "uint256"
        }
      ],
      "stateMutability": "view",
      "type": "function"
    },
    {
      "inputs": [],
      "name": "getAgreementInfo",
      "outputs": [
        {
          "internalType": "address",
          "name": "_admin",
          "type": "address"
        },
        {
          "internalType": "address",
          "name": "_owner",
          "type": "address"
        },
        {
          "internalType": "address",
          "name": "_user",
          "type": "address"
        },
        {
          "internalType": "uint256",
          "name": "_vehicleId",
          "type": "uint256"
        },
        {
          "internalType": "uint256",
          "name": "_rentAmount",
          "type": "uint256"
        },
        {
          "internalType": "uint256",
          "name": "_depositAmount",
          "type": "uint256"
        },
        {
          "internalType": "uint256",
          "name": "_startDate",
          "type": "uint256"
        },
        {
          "internalType": "uint256",
          "name": "_endDate",
          "type": "uint256"
        },
        {
          "internalType": "enum RentalAgreement.AgreementStatus",
          "name": "_status",
          "type": "uint8"
        },
        {
          "internalType": "string",
          "name": "_ipfsHash",
          "type": "string"
        }
      ],
      "stateMutability": "view",
      "type": "function"
    },
    {
      "inputs": [],
      "name": "ipfsHash",
      "outputs": [
        {
          "internalType": "string",
          "name": "",
          "type": "string"
        }
      ],
      "stateMutability": "view",
      "type": "function"
    },
    {
      "inputs": [],
      "name": "makePayment",
      "outputs": [],
      "stateMutability": "nonpayable",
      "type": "function"
    },
    {
      "inputs": [],
      "name": "owner",
      "outputs": [
        {
          "internalType": "address",
          "name": "",
          "type": "address"
        }
      ],
      "stateMutability": "view",
      "type": "function"
    },
    {
      "inputs": [],
      "name": "rentAmount",
      "outputs": [
        {
          "internalType": "uint256",
          "name": "",
          "type": "uint256"
        }
      ],
      "stateMutability": "view",
      "type": "function"
    },
    {
      "inputs": [
        {
          "internalType": "string",
          "name": "_ipfsHash",
          "type": "string"
        }
      ],
      "name": "setContractFileHash",
      "outputs": [],
      "stateMutability": "nonpayable",
      "type": "function"
    },
    {
      "inputs": [],
      "name": "startDate",
      "outputs": [
        {
          "internalType": "uint256",
          "name": "",
          "type": "uint256"
        }
      ],
      "stateMutability": "view",
      "type": "function"
    },
    {
      "inputs": [],
      "name": "status",
      "outputs": [
        {
          "internalType": "enum RentalAgreement.AgreementStatus",
          "name": "",
          "type": "uint8"
        }
      ],
      "stateMutability": "view",
      "type": "function"
    },
    {
      "inputs": [],
      "name": "token",
      "outputs": [
        {
          "internalType": "contract CarPayToken",
          "name": "",
          "type": "address"
        }
      ],
      "stateMutability": "view",
      "type": "function"
    },
    {
      "inputs": [],
      "name": "user",
      "outputs": [
        {
          "internalType": "address",
          "name": "",
          "type": "address"
        }
      ],
      "stateMutability": "view",
      "type": "function"
    },
    {
      "inputs": [],
      "name": "vehicleId",
      "outputs": [
        {
          "internalType": "uint256",
          "name": "",
          "type": "uint256"
        }
      ],
      "stateMutability": "view",
      "type": "function"
    }
  ],
  "bytecode": "0x60806040523480156200001157600080fd5b506040516200260b3803806200260b833981810160405281019062000037919062000316565b600073ffffffffffffffffffffffffffffffffffffffff168773ffffffffffffffffffffffffffffffffffffffff1614158015620000a25750600073ffffffffffffffffffffffffffffffffffffffff168673ffffffffffffffffffffffffffffffffffffffff1614155b8015620000dc5750600073ffffffffffffffffffffffffffffffffffffffff168573ffffffffffffffffffffffffffffffffffffffff1614155b6200011e576040517f08c379a000000000000000000000000000000000000000000000000000000000815260040162000115906200042a565b60405180910390fd5b866000806101000a81548173ffffffffffffffffffffffffffffffffffffffff021916908373ffffffffffffffffffffffffffffffffffffffff16021790555085600160006101000a81548173ffffffffffffffffffffffffffffffffffffffff021916908373ffffffffffffffffffffffffffffffffffffffff16021790555084600260006101000a81548173ffffffffffffffffffffffffffffffffffffffff021916908373ffffffffffffffffffffffffffffffffffffffff16021790555083600381905550826004819055508160058190555080600960016101000a81548173ffffffffffffffffffffffffffffffffffffffff021916908373ffffffffffffffffffffffffffffffffffffffff1602179055506000600960006101000a81548160ff021916908360038111156200025f576200025e6200044c565b5b0217905550505050505050506200047b565b600080fd5b600073ffffffffffffffffffffffffffffffffffffffff82169050919050565b6000620002a38262000276565b9050919050565b620002b58162000296565b8114620002c157600080fd5b50565b600081519050620002d581620002aa565b92915050565b6000819050919050565b620002f081620002db565b8114620002fc57600080fd5b50565b6000815190506200031081620002e5565b92915050565b600080600080600080600060e0888a03121562000338576200033762000271565b5b6000620003488a828b01620002c4565b97505060206200035b8a828b01620002c4565b96505060406200036e8a828b01620002c4565b9550506060620003818a828b01620002ff565b9450506080620003948a828b01620002ff565b93505060a0620003a78a828b01620002ff565b92505060c0620003ba8a828b01620002c4565b91505092959891949750929550565b600082825260208201905092915050565b7f496e76616c696420616464726573730000000000000000000000000000000000600082015250565b600062000412600f83620003c9565b91506200041f82620003da565b602082019050919050565b60006020820190508181036000830152620004458162000403565b9050919050565b7f4e487b7100000000000000000000000000000000000000000000000000000000600052602160045260246000fd5b612180806200048b6000396000f3fe608060405234801561001057600080fd5b506004361061010b5760003560e01c8063c24a0f8b116100a2578063de64039011610071578063de64039014610243578063e8963d121461025f578063f851a4401461027d578063f8ef1e131461029b578063fc0c546a146102b95761010b565b8063c24a0f8b146101f3578063c623674f14610211578063cf6ad8761461022f578063d8d79700146102395761010b565b8063419759f5116100de578063419759f51461017d57806349480f291461019b5780634f8632ba146101b75780638da5cb5b146101d55761010b565b8063043798a1146101105780630723e5271461011a5780630b97bc8614610141578063200d2ed21461015f575b600080fd5b6101186102d7565b005b61012261057d565b6040516101389a999897969594939291906113ec565b60405180910390f35b6101496106c1565b604051610156919061148f565b60405180910390f35b6101676106c7565b60405161017491906114aa565b60405180910390f35b6101856106da565b604051610192919061148f565b60405180910390f35b6101b560048036038101906101b0919061160e565b6106e0565b005b6101bf6107fe565b6040516101cc9190611657565b60405180910390f35b6101dd610824565b6040516101ea9190611657565b60405180910390f35b6101fb61084a565b604051610208919061148f565b60405180910390f35b610219610850565b6040516102269190611672565b60405180910390f35b6102376108de565b005b610241610c34565b005b61025d600480360381019061025891906116c0565b610f1c565b005b610267611235565b604051610274919061148f565b60405180910390f35b61028561123b565b6040516102929190611657565b60405180910390f35b6102a361125f565b6040516102b0919061148f565b60405180910390f35b6102c1611265565b6040516102ce919061174c565b60405180910390f35b600160009054906101000a900473ffffffffffffffffffffffffffffffffffffffff1673ffffffffffffffffffffffffffffffffffffffff163373ffffffffffffffffffffffffffffffffffffffff1614610367576040517f08c379a000000000000000000000000000000000000000000000000000000000815260040161035e906117b3565b60405180910390fd5b6001600381111561037b5761037a6112e5565b5b600960009054906101000a900460ff16600381111561039d5761039c6112e5565b5b146103dd576040517f08c379a00000000000000000000000000000000000000000000000000000000081526004016103d49061181f565b60405180910390fd5b6002600960006101000a81548160ff02191690836003811115610403576104026112e5565b5b0217905550600960019054906101000a900473ffffffffffffffffffffffffffffffffffffffff1673ffffffffffffffffffffffffffffffffffffffff1663a9059cbb600260009054906101000a900473ffffffffffffffffffffffffffffffffffffffff166005546040518363ffffffff1660e01b815260040161048992919061183f565b6020604051808303816000875af11580156104a8573d6000803e3d6000fd5b505050506040513d601f19601f820116820180604052508101906104cc91906118a0565b61050b576040517f08c379a000000000000000000000000000000000000000000000000000000000815260040161050290611919565b60405180910390fd5b600160009054906101000a900473ffffffffffffffffffffffffffffffffffffffff1673ffffffffffffffffffffffffffffffffffffffff167fcef18548c703cafca45ac8a5a4f701d242e688abd402fa54b3e8fdac943f242c42604051610573919061148f565b60405180910390a2565b6000806000806000806000806000606060008054906101000a900473ffffffffffffffffffffffffffffffffffffffff16600160009054906101000a900473ffffffffffffffffffffffffffffffffffffffff16600260009054906101000a900473ffffffffffffffffffffffffffffffffffffffff16600354600454600554600654600754600960009054906101000a900460ff16600880805461062190611968565b80601f016020809104026020016040519081016040528092919081815260200182805461064d90611968565b801561069a5780601f1061066f5761010080835404028352916020019161069a565b820191906000526020600020905b81548152906001019060200180831161067d57829003601f168201915b50505050509050995099509950995099509950995099509950995090919293949596979899565b60065481565b600960009054906101000a900460ff1681565b60055481565b600160009054906101000a900473ffffffffffffffffffffffffffffffffffffffff1673ffffffffffffffffffffffffffffffffffffffff163373ffffffffffffffffffffffffffffffffffffffff1614610770576040517f08c379a0000000000000000000000000000000000000000000000000000000008152600401610767906117b3565b60405180910390fd5b60008151116107b4576040517f08c379a00000000000000000000000000000000000000000000000000000000081526004016107ab906119e5565b60405180910390fd5b80600890816107c39190611ba7565b507f2fd0fa79b09172ad37dab14c1f11972bf6939112d8f1d66068b864c293cf39b3816040516107f39190611672565b60405180910390a150565b600260009054906101000a900473ffffffffffffffffffffffffffffffffffffffff1681565b600160009054906101000a900473ffffffffffffffffffffffffffffffffffffffff1681565b60075481565b6008805461085d90611968565b80601f016020809104026020016040519081016040528092919081815260200182805461088990611968565b80156108d65780601f106108ab576101008083540402835291602001916108d6565b820191906000526020600020905b8154815290600101906020018083116108b957829003601f168201915b505050505081565b600160009054906101000a900473ffffffffffffffffffffffffffffffffffffffff1673ffffffffffffffffffffffffffffffffffffffff163373ffffffffffffffffffffffffffffffffffffffff1614806109875750600260009054906101000a900473ffffffffffffffffffffffffffffffffffffffff1673ffffffffffffffffffffffffffffffffffffffff163373ffffffffffffffffffffffffffffffffffffffff16145b6109c6576040517f08c379a00000000000000000000000000000000000000000000000000000000081526004016109bd90611cc5565b60405180910390fd5b600060038111156109da576109d96112e5565b5b600960009054906101000a900460ff1660038111156109fc576109fb6112e5565b5b1480610a3b575060016003811115610a1757610a166112e5565b5b600960009054906101000a900460ff166003811115610a3957610a386112e5565b5b145b610a7a576040517f08c379a0000000000000000000000000000000000000000000000000000000008152600401610a7190611d31565b60405180910390fd5b60016003811115610a8e57610a8d6112e5565b5b600960009054906101000a900460ff166003811115610ab057610aaf6112e5565b5b03610bb957600960019054906101000a900473ffffffffffffffffffffffffffffffffffffffff1673ffffffffffffffffffffffffffffffffffffffff1663a9059cbb600160009054906101000a900473ffffffffffffffffffffffffffffffffffffffff166005546040518363ffffffff1660e01b8152600401610b3692919061183f565b6020604051808303816000875af1158015610b55573d6000803e3d6000fd5b505050506040513d601f19601f82011682018060405250810190610b7991906118a0565b610bb8576040517f08c379a0000000000000000000000000000000000000000000000000000000008152600401610baf90611d9d565b60405180910390fd5b5b6003600960006101000a81548160ff02191690836003811115610bdf57610bde6112e5565b5b02179055503373ffffffffffffffffffffffffffffffffffffffff167ffab2b7f82959aa58a83804666a6c0eb98ef4ec938a314db9f0c72bfbb37f05ae42604051610c2a919061148f565b60405180910390a2565b600260009054906101000a900473ffffffffffffffffffffffffffffffffffffffff1673ffffffffffffffffffffffffffffffffffffffff163373ffffffffffffffffffffffffffffffffffffffff1614610cc4576040517f08c379a0000000000000000000000000000000000000000000000000000000008152600401610cbb90611e09565b60405180910390fd5b60016003811115610cd857610cd76112e5565b5b600960009054906101000a900460ff166003811115610cfa57610cf96112e5565b5b14610d3a576040517f08c379a0000000000000000000000000000000000000000000000000000000008152600401610d319061181f565b60405180910390fd5b600754421115610d7f576040517f08c379a0000000000000000000000000000000000000000000000000000000008152600401610d7690611e75565b60405180910390fd5b600960019054906101000a900473ffffffffffffffffffffffffffffffffffffffff1673ffffffffffffffffffffffffffffffffffffffff166323b872dd600260009054906101000a900473ffffffffffffffffffffffffffffffffffffffff16600160009054906101000a900473ffffffffffffffffffffffffffffffffffffffff166004546040518463ffffffff1660e01b8152600401610e2493929190611e95565b6020604051808303816000875af1158015610e43573d6000803e3d6000fd5b505050506040513d601f19601f82011682018060405250810190610e6791906118a0565b610ea6576040517f08c379a0000000000000000000000000000000000000000000000000000000008152600401610e9d90611f18565b60405180910390fd5b600260009054906101000a900473ffffffffffffffffffffffffffffffffffffffff1673ffffffffffffffffffffffffffffffffffffffff167fc65a4e529c0450a515882508bea7ee3485fbfdf8436e0bd13dc38dfbc859b1cb60045442604051610f12929190611f38565b60405180910390a2565b600260009054906101000a900473ffffffffffffffffffffffffffffffffffffffff1673ffffffffffffffffffffffffffffffffffffffff163373ffffffffffffffffffffffffffffffffffffffff1614610fac576040517f08c379a0000000000000000000000000000000000000000000000000000000008152600401610fa390611e09565b60405180910390fd5b60006003811115610fc057610fbf6112e5565b5b600960009054906101000a900460ff166003811115610fe257610fe16112e5565b5b14611022576040517f08c379a000000000000000000000000000000000000000000000000000000000815260040161101990611fad565b60405180910390fd5b60008111611065576040517f08c379a000000000000000000000000000000000000000000000000000000000815260040161105c90612019565b60405180910390fd5b42600681905550620151808161107b9190612068565b4261108691906120aa565b600781905550600960019054906101000a900473ffffffffffffffffffffffffffffffffffffffff1673ffffffffffffffffffffffffffffffffffffffff166323b872dd600260009054906101000a900473ffffffffffffffffffffffffffffffffffffffff16306005546040518463ffffffff1660e01b815260040161110f93929190611e95565b6020604051808303816000875af115801561112e573d6000803e3d6000fd5b505050506040513d601f19601f8201168201806040525081019061115291906118a0565b611191576040517f08c379a00000000000000000000000000000000000000000000000000000000081526004016111889061212a565b60405180910390fd5b6001600960006101000a81548160ff021916908360038111156111b7576111b66112e5565b5b0217905550600260009054906101000a900473ffffffffffffffffffffffffffffffffffffffff1673ffffffffffffffffffffffffffffffffffffffff167f6858a32d7f1527aad606ebeedbd552c747b16c0ce2dff4bdf606c0d1bf23f70c60065460075460405161122a929190611f38565b60405180910390a250565b60035481565b60008054906101000a900473ffffffffffffffffffffffffffffffffffffffff1681565b60045481565b600960019054906101000a900473ffffffffffffffffffffffffffffffffffffffff1681565b600073ffffffffffffffffffffffffffffffffffffffff82169050919050565b60006112b68261128b565b9050919050565b6112c6816112ab565b82525050565b6000819050919050565b6112df816112cc565b82525050565b7f4e487b7100000000000000000000000000000000000000000000000000000000600052602160045260246000fd5b60048110611325576113246112e5565b5b50565b600081905061133682611314565b919050565b600061134682611328565b9050919050565b6113568161133b565b82525050565b600081519050919050565b600082825260208201905092915050565b60005b8381101561139657808201518184015260208101905061137b565b60008484015250505050565b6000601f19601f8301169050919050565b60006113be8261135c565b6113c88185611367565b93506113d8818560208601611378565b6113e1816113a2565b840191505092915050565b600061014082019050611402600083018d6112bd565b61140f602083018c6112bd565b61141c604083018b6112bd565b611429606083018a6112d6565b61143660808301896112d6565b61144360a08301886112d6565b61145060c08301876112d6565b61145d60e08301866112d6565b61146b61010083018561134d565b81810361012083015261147e81846113b3565b90509b9a5050505050505050505050565b60006020820190506114a460008301846112d6565b92915050565b60006020820190506114bf600083018461134d565b92915050565b6000604051905090565b600080fd5b600080fd5b600080fd5b600080fd5b7f4e487b7100000000000000000000000000000000000000000000000000000000600052604160045260246000fd5b61151b826113a2565b810181811067ffffffffffffffff8211171561153a576115396114e3565b5b80604052505050565b600061154d6114c5565b90506115598282611512565b919050565b600067ffffffffffffffff821115611579576115786114e3565b5b611582826113a2565b9050602081019050919050565b82818337600083830152505050565b60006115b16115ac8461155e565b611543565b9050828152602081018484840111156115cd576115cc6114de565b5b6115d884828561158f565b509392505050565b600082601f8301126115f5576115f46114d9565b5b813561160584826020860161159e565b91505092915050565b600060208284031215611624576116236114cf565b5b600082013567ffffffffffffffff811115611642576116416114d4565b5b61164e848285016115e0565b91505092915050565b600060208201905061166c60008301846112bd565b92915050565b6000602082019050818103600083015261168c81846113b3565b905092915050565b61169d816112cc565b81146116a857600080fd5b50565b6000813590506116ba81611694565b92915050565b6000602082840312156116d6576116d56114cf565b5b60006116e4848285016116ab565b91505092915050565b6000819050919050565b600061171261170d6117088461128b565b6116ed565b61128b565b9050919050565b6000611724826116f7565b9050919050565b600061173682611719565b9050919050565b6117468161172b565b82525050565b6000602082019050611761600083018461173d565b92915050565b7f4e6f74206f776e65720000000000000000000000000000000000000000000000600082015250565b600061179d600983611367565b91506117a882611767565b602082019050919050565b600060208201905081810360008301526117cc81611790565b9050919050565b7f4e6f742061637469766500000000000000000000000000000000000000000000600082015250565b6000611809600a83611367565b9150611814826117d3565b602082019050919050565b60006020820190508181036000830152611838816117fc565b9050919050565b600060408201905061185460008301856112bd565b61186160208301846112d6565b9392505050565b60008115159050919050565b61187d81611868565b811461188857600080fd5b50565b60008151905061189a81611874565b92915050565b6000602082840312156118b6576118b56114cf565b5b60006118c48482850161188b565b91505092915050565b7f526566756e64206661696c656400000000000000000000000000000000000000600082015250565b6000611903600d83611367565b915061190e826118cd565b602082019050919050565b60006020820190508181036000830152611932816118f6565b9050919050565b7f4e487b7100000000000000000000000000000000000000000000000000000000600052602260045260246000fd5b6000600282049050600182168061198057607f821691505b60208210810361199357611992611939565b5b50919050565b7f456d707479206861736800000000000000000000000000000000000000000000600082015250565b60006119cf600a83611367565b91506119da82611999565b602082019050919050565b600060208201905081810360008301526119fe816119c2565b9050919050565b60008190508160005260206000209050919050565b60006020601f8301049050919050565b600082821b905092915050565b600060088302611a677fffffffffffffffffffffffffffffffffffffffffffffffffffffffffffffffff82611a2a565b611a718683611a2a565b95508019841693508086168417925050509392505050565b6000611aa4611a9f611a9a846112cc565b6116ed565b6112cc565b9050919050565b6000819050919050565b611abe83611a89565b611ad2611aca82611aab565b848454611a37565b825550505050565b600090565b611ae7611ada565b611af2818484611ab5565b505050565b5b81811015611b1657611b0b600082611adf565b600181019050611af8565b5050565b601f821115611b5b57611b2c81611a05565b611b3584611a1a565b81016020851015611b44578190505b611b58611b5085611a1a565b830182611af7565b50505b505050565b600082821c905092915050565b6000611b7e60001984600802611b60565b1980831691505092915050565b6000611b978383611b6d565b9150826002028217905092915050565b611bb08261135c565b67ffffffffffffffff811115611bc957611bc86114e3565b5b611bd38254611968565b611bde828285611b1a565b600060209050601f831160018114611c115760008415611bff578287015190505b611c098582611b8b565b865550611c71565b601f198416611c1f86611a05565b60005b82811015611c4757848901518255600182019150602085019450602081019050611c22565b86831015611c645784890151611c60601f891682611b6d565b8355505b6001600288020188555050505b505050505050565b7f4e6f74207061727469636970616e740000000000000000000000000000000000600082015250565b6000611caf600f83611367565b9150611cba82611c79565b602082019050919050565b60006020820190508181036000830152611cde81611ca2565b9050919050565b7f43616e6e6f742063616e63656c00000000000000000000000000000000000000600082015250565b6000611d1b600d83611367565b9150611d2682611ce5565b602082019050919050565b60006020820190508181036000830152611d4a81611d0e565b9050919050565b7f4465706f736974207472616e7366657272656420746f206f776e657200000000600082015250565b6000611d87601c83611367565b9150611d9282611d51565b602082019050919050565b60006020820190508181036000830152611db681611d7a565b9050919050565b7f4e6f742075736572000000000000000000000000000000000000000000000000600082015250565b6000611df3600883611367565b9150611dfe82611dbd565b602082019050919050565b60006020820190508181036000830152611e2281611de6565b9050919050565b7f436f6e7472616374206578706972656400000000000000000000000000000000600082015250565b6000611e5f601083611367565b9150611e6a82611e29565b602082019050919050565b60006020820190508181036000830152611e8e81611e52565b9050919050565b6000606082019050611eaa60008301866112bd565b611eb760208301856112bd565b611ec460408301846112d6565b949350505050565b7f5061796d656e74206661696c6564000000000000000000000000000000000000600082015250565b6000611f02600e83611367565b9150611f0d82611ecc565b602082019050919050565b60006020820190508181036000830152611f3181611ef5565b9050919050565b6000604082019050611f4d60008301856112d6565b611f5a60208301846112d6565b9392505050565b7f416c726561647920616374697665000000000000000000000000000000000000600082015250565b6000611f97600e83611367565b9150611fa282611f61565b602082019050919050565b60006020820190508181036000830152611fc681611f8a565b9050919050565b7f496e76616c6964206475726174696f6e00000000000000000000000000000000600082015250565b6000612003601083611367565b915061200e82611fcd565b602082019050919050565b6000602082019050818103600083015261203281611ff6565b9050919050565b7f4e487b7100000000000000000000000000000000000000000000000000000000600052601160045260246000fd5b6000612073826112cc565b915061207e836112cc565b925082820261208c816112cc565b915082820484148315176120a3576120a2612039565b5b5092915050565b60006120b5826112cc565b91506120c0836112cc565b92508282019050808211156120d8576120d7612039565b5b92915050565b7f4465706f736974206661696c6564000000000000000000000000000000000000600082015250565b6000612114600e83611367565b915061211f826120de565b602082019050919050565b6000602082019050818103600083015261214381612107565b905091905056fea26469706673582212200815bd9dfdcda61f551b078fc023145415bc26c5ceded267a823feab0e113f8164736f6c63430008140033",
  "linkReferences": {},
  "deployedLinkReferences": {}
}