{
  "_format": "hh-sol-artifact-1",
  "contractName": "RentalAgreement",
  "sourceName": "contracts/RentalAgreement.sol",
  "abi": [
    {
      "inputs": [
        {
          "internalType": "address",
          "name": "_admin",
          "type": "address"
        },
        {
          "internalType": "address",
          "name": "_owner",
          "type": "address"
        },
        {
          "internalType": "address",
          "name": "_user",
          "type": "address"
        },
        {
          "internalType": "uint256",
          "name": "_vehicleId",
          "type": "uint256"
        },
        {
          "internalType": "uint256",
          "name": "_rentAmount",
          "type": "uint256"
        },
        {
          "internalType": "uint256",
          "name": "_depositAmount",
          "type": "uint256"
        },
        {
          "internalType": "address payable",
          "name": "_tokenAddress",
          "type": "address"
        }
      ],
      "stateMutability": "nonpayable",
      "type": "constructor"
    },
    {
      "anonymous": false,
      "inputs": [
        {
          "indexed": true,
          "internalType": "address",
          "name": "user",
          "type": "address"
        },
        {
          "indexed": false,
          "internalType": "uint256",
          "name": "startDate",
          "type": "uint256"
        },
        {
          "indexed": false,
          "internalType": "uint256",
          "name": "endDate",
          "type": "uint256"
        }
      ],
      "name": "AgreementActivated",
      "type": "event"
    },
    {
      "anonymous": false,
      "inputs": [
        {
          "indexed": true,
          "internalType": "address",
          "name": "initiator",
          "type": "address"
        },
        {
          "indexed": false,
          "internalType": "uint256",
          "name": "date",
          "type": "uint256"
        }
      ],
      "name": "AgreementCancelled",
      "type": "event"
    },
    {
      "anonymous": false,
      "inputs": [
        {
          "indexed": true,
          "internalType": "address",
          "name": "owner",
          "type": "address"
        },
        {
          "indexed": false,
          "internalType": "uint256",
          "name": "date",
          "type": "uint256"
        }
      ],
      "name": "AgreementCompleted",
      "type": "event"
    },
    {
      "anonymous": false,
      "inputs": [
        {
          "indexed": true,
          "internalType": "address",
          "name": "signer",
          "type": "address"
        },
        {
          "indexed": false,
          "internalType": "string",
          "name": "role",
          "type": "string"
        }
      ],
      "name": "AgreementSigned",
      "type": "event"
    },
    {
      "anonymous": false,
      "inputs": [
        {
          "indexed": false,
          "internalType": "string",
          "name": "ipfsHash",
          "type": "string"
        }
      ],
      "name": "ContractFileHashSet",
      "type": "event"
    },
    {
      "anonymous": false,
      "inputs": [
        {
          "indexed": true,
          "internalType": "address",
          "name": "user",
          "type": "address"
        },
        {
          "indexed": false,
          "internalType": "uint256",
          "name": "amount",
          "type": "uint256"
        },
        {
          "indexed": false,
          "internalType": "uint256",
          "name": "date",
          "type": "uint256"
        }
      ],
      "name": "PaymentMade",
      "type": "event"
    },
    {
      "inputs": [],
      "name": "admin",
      "outputs": [
        {
          "internalType": "address",
          "name": "",
          "type": "address"
        }
      ],
      "stateMutability": "view",
      "type": "function"
    },
    {
      "inputs": [],
      "name": "cancelAgreement",
      "outputs": [],
      "stateMutability": "nonpayable",
      "type": "function"
    },
    {
      "inputs": [],
      "name": "completeAgreement",
      "outputs": [],
      "stateMutability": "nonpayable",
      "type": "function"
    },
    {
      "inputs": [],
      "name": "depositAmount",
      "outputs": [
        {
          "internalType": "uint256",
          "name": "",
          "type": "uint256"
        }
      ],
      "stateMutability": "view",
      "type": "function"
    },
    {
      "inputs": [],
      "name": "endDate",
      "outputs": [
        {
          "internalType": "uint256",
          "name": "",
          "type": "uint256"
        }
      ],
      "stateMutability": "view",
      "type": "function"
    },
    {
      "inputs": [],
      "name": "getAgreementInfo",
      "outputs": [
        {
          "internalType": "address",
          "name": "_admin",
          "type": "address"
        },
        {
          "internalType": "address",
          "name": "_owner",
          "type": "address"
        },
        {
          "internalType": "address",
          "name": "_user",
          "type": "address"
        },
        {
          "internalType": "uint256",
          "name": "_vehicleId",
          "type": "uint256"
        },
        {
          "internalType": "uint256",
          "name": "_rentAmount",
          "type": "uint256"
        },
        {
          "internalType": "uint256",
          "name": "_depositAmount",
          "type": "uint256"
        },
        {
          "internalType": "uint256",
          "name": "_startDate",
          "type": "uint256"
        },
        {
          "internalType": "uint256",
          "name": "_endDate",
          "type": "uint256"
        },
        {
          "internalType": "enum RentalAgreement.AgreementStatus",
          "name": "_status",
          "type": "uint8"
        },
        {
          "internalType": "string",
          "name": "_ipfsHash",
          "type": "string"
        },
        {
          "internalType": "bool",
          "name": "_ownerSigned",
          "type": "bool"
        },
        {
          "internalType": "bool",
          "name": "_userSigned",
          "type": "bool"
        }
      ],
      "stateMutability": "view",
      "type": "function"
    },
    {
      "inputs": [],
      "name": "getPayments",
      "outputs": [
        {
          "components": [
            {
              "internalType": "uint256",
              "name": "amount",
              "type": "uint256"
            },
            {
              "internalType": "uint256",
              "name": "timestamp",
              "type": "uint256"
            }
          ],
          "internalType": "struct RentalAgreement.Payment[]",
          "name": "",
          "type": "tuple[]"
        }
      ],
      "stateMutability": "view",
      "type": "function"
    },
    {
      "inputs": [],
      "name": "ipfsHash",
      "outputs": [
        {
          "internalType": "string",
          "name": "",
          "type": "string"
        }
      ],
      "stateMutability": "view",
      "type": "function"
    },
    {
      "inputs": [],
      "name": "makePayment",
      "outputs": [],
      "stateMutability": "nonpayable",
      "type": "function"
    },
    {
      "inputs": [],
      "name": "nextPaymentDue",
      "outputs": [
        {
          "internalType": "uint256",
          "name": "",
          "type": "uint256"
        }
      ],
      "stateMutability": "view",
      "type": "function"
    },
    {
      "inputs": [],
      "name": "owner",
      "outputs": [
        {
          "internalType": "address",
          "name": "",
          "type": "address"
        }
      ],
      "stateMutability": "view",
      "type": "function"
    },
    {
      "inputs": [],
      "name": "ownerSigned",
      "outputs": [
        {
          "internalType": "bool",
          "name": "",
          "type": "bool"
        }
      ],
      "stateMutability": "view",
      "type": "function"
    },
    {
      "inputs": [],
      "name": "paymentIntervalDays",
      "outputs": [
        {
          "internalType": "uint256",
          "name": "",
          "type": "uint256"
        }
      ],
      "stateMutability": "view",
      "type": "function"
    },
    {
      "inputs": [
        {
          "internalType": "uint256",
          "name": "",
          "type": "uint256"
        }
      ],
      "name": "payments",
      "outputs": [
        {
          "internalType": "uint256",
          "name": "amount",
          "type": "uint256"
        },
        {
          "internalType": "uint256",
          "name": "timestamp",
          "type": "uint256"
        }
      ],
      "stateMutability": "view",
      "type": "function"
    },
    {
      "inputs": [],
      "name": "rentAmount",
      "outputs": [
        {
          "internalType": "uint256",
          "name": "",
          "type": "uint256"
        }
      ],
      "stateMutability": "view",
      "type": "function"
    },
    {
      "inputs": [
        {
          "internalType": "string",
          "name": "_ipfsHash",
          "type": "string"
        }
      ],
      "name": "setContractFileHash",
      "outputs": [],
      "stateMutability": "nonpayable",
      "type": "function"
    },
    {
      "inputs": [],
      "name": "signAgreementAsOwner",
      "outputs": [],
      "stateMutability": "nonpayable",
      "type": "function"
    },
    {
      "inputs": [
        {
          "internalType": "uint256",
          "name": "_durationDays",
          "type": "uint256"
        },
        {
          "internalType": "uint256",
          "name": "_intervalDays",
          "type": "uint256"
        }
      ],
      "name": "signAgreementAsUser",
      "outputs": [],
      "stateMutability": "nonpayable",
      "type": "function"
    },
    {
      "inputs": [],
      "name": "startDate",
      "outputs": [
        {
          "internalType": "uint256",
          "name": "",
          "type": "uint256"
        }
      ],
      "stateMutability": "view",
      "type": "function"
    },
    {
      "inputs": [],
      "name": "status",
      "outputs": [
        {
          "internalType": "enum RentalAgreement.AgreementStatus",
          "name": "",
          "type": "uint8"
        }
      ],
      "stateMutability": "view",
      "type": "function"
    },
    {
      "inputs": [],
      "name": "token",
      "outputs": [
        {
          "internalType": "contract CarPayToken",
          "name": "",
          "type": "address"
        }
      ],
      "stateMutability": "view",
      "type": "function"
    },
    {
      "inputs": [],
      "name": "user",
      "outputs": [
        {
          "internalType": "address",
          "name": "",
          "type": "address"
        }
      ],
      "stateMutability": "view",
      "type": "function"
    },
    {
      "inputs": [],
      "name": "userSigned",
      "outputs": [
        {
          "internalType": "bool",
          "name": "",
          "type": "bool"
        }
      ],
      "stateMutability": "view",
      "type": "function"
    },
    {
      "inputs": [],
      "name": "vehicleId",
      "outputs": [
        {
          "internalType": "uint256",
          "name": "",
          "type": "uint256"
        }
      ],
      "stateMutability": "view",
      "type": "function"
    }
  ],
  "bytecode": "0x60806040523480156200001157600080fd5b5060405162002fe238038062002fe283398181016040528101906200003791906200035b565b600073ffffffffffffffffffffffffffffffffffffffff168773ffffffffffffffffffffffffffffffffffffffff1614158015620000a25750600073ffffffffffffffffffffffffffffffffffffffff168673ffffffffffffffffffffffffffffffffffffffff1614155b8015620000dc5750600073ffffffffffffffffffffffffffffffffffffffff168573ffffffffffffffffffffffffffffffffffffffff1614155b6200011e576040517f08c379a000000000000000000000000000000000000000000000000000000000815260040162000115906200046f565b60405180910390fd5b866000806101000a81548173ffffffffffffffffffffffffffffffffffffffff021916908373ffffffffffffffffffffffffffffffffffffffff16021790555085600160006101000a81548173ffffffffffffffffffffffffffffffffffffffff021916908373ffffffffffffffffffffffffffffffffffffffff16021790555084600260006101000a81548173ffffffffffffffffffffffffffffffffffffffff021916908373ffffffffffffffffffffffffffffffffffffffff16021790555083600381905550826004819055508160058190555080600b60016101000a81548173ffffffffffffffffffffffffffffffffffffffff021916908373ffffffffffffffffffffffffffffffffffffffff1602179055506000600b60006101000a81548160ff021916908360038111156200025f576200025e62000491565b5b021790555050505050505050620004c0565b600080fd5b600073ffffffffffffffffffffffffffffffffffffffff82169050919050565b6000620002a38262000276565b9050919050565b620002b58162000296565b8114620002c157600080fd5b50565b600081519050620002d581620002aa565b92915050565b6000819050919050565b620002f081620002db565b8114620002fc57600080fd5b50565b6000815190506200031081620002e5565b92915050565b6000620003238262000276565b9050919050565b620003358162000316565b81146200034157600080fd5b50565b60008151905062000355816200032a565b92915050565b600080600080600080600060e0888a0312156200037d576200037c62000271565b5b60006200038d8a828b01620002c4565b9750506020620003a08a828b01620002c4565b9650506040620003b38a828b01620002c4565b9550506060620003c68a828b01620002ff565b9450506080620003d98a828b01620002ff565b93505060a0620003ec8a828b01620002ff565b92505060c0620003ff8a828b0162000344565b91505092959891949750929550565b600082825260208201905092915050565b7f496e76616c696420616464726573730000000000000000000000000000000000600082015250565b600062000457600f836200040e565b915062000464826200041f565b602082019050919050565b600060208201905081810360008301526200048a8162000448565b9050919050565b7f4e487b7100000000000000000000000000000000000000000000000000000000600052602160045260246000fd5b612b1280620004d06000396000f3fe608060405234801561001057600080fd5b50600436106101585760003560e01c8063b4198570116100c3578063d56bd1421161007c578063d56bd14214610357578063d8d7970014610375578063e8963d121461037f578063f851a4401461039d578063f8ef1e13146103bb578063fc0c546a146103d957610158565b8063b4198570146102cb578063c24a0f8b146102e9578063c31e07b914610307578063c623674f14610325578063cf6ad87614610343578063d1302b3b1461034d57610158565b806349480f291161011557806349480f29146102085780634f8632ba146102245780637a18991e1461024257806387d81789146102605780638da5cb5b14610291578063aedf4992146102af57610158565b8063043798a11461015d5780630723e527146101675780630b97bc86146101905780630d2a4ae7146101ae578063200d2ed2146101cc578063419759f5146101ea575b600080fd5b6101656103f7565b005b61016f61069d565b6040516101879c9b9a999897969594939291906119e6565b60405180910390f35b61019861080a565b6040516101a59190611aa7565b60405180910390f35b6101b6610810565b6040516101c39190611aa7565b60405180910390f35b6101d4610816565b6040516101e19190611ac2565b60405180910390f35b6101f2610829565b6040516101ff9190611aa7565b60405180910390f35b610222600480360381019061021d9190611c26565b61082f565b005b61022c61094d565b6040516102399190611c6f565b60405180910390f35b61024a610973565b6040516102579190611c8a565b60405180910390f35b61027a60048036038101906102759190611cd1565b610986565b604051610288929190611cfe565b60405180910390f35b6102996109ba565b6040516102a69190611c6f565b60405180910390f35b6102c960048036038101906102c49190611d27565b6109e0565b005b6102d3610c03565b6040516102e09190611aa7565b60405180910390f35b6102f1610c09565b6040516102fe9190611aa7565b60405180910390f35b61030f610c0f565b60405161031c9190611c8a565b60405180910390f35b61032d610c22565b60405161033a9190611d67565b60405180910390f35b61034b610cb0565b005b610355611006565b005b61035f6111cd565b60405161036c9190611e76565b60405180910390f35b61037d611240565b005b6103876115e7565b6040516103949190611aa7565b60405180910390f35b6103a56115ed565b6040516103b29190611c6f565b60405180910390f35b6103c3611611565b6040516103d09190611aa7565b60405180910390f35b6103e1611617565b6040516103ee9190611ef7565b60405180910390f35b600160009054906101000a900473ffffffffffffffffffffffffffffffffffffffff1673ffffffffffffffffffffffffffffffffffffffff163373ffffffffffffffffffffffffffffffffffffffff1614610487576040517f08c379a000000000000000000000000000000000000000000000000000000000815260040161047e90611f5e565b60405180910390fd5b6001600381111561049b5761049a6118c4565b5b600b60009054906101000a900460ff1660038111156104bd576104bc6118c4565b5b146104fd576040517f08c379a00000000000000000000000000000000000000000000000000000000081526004016104f490611fca565b60405180910390fd5b6002600b60006101000a81548160ff02191690836003811115610523576105226118c4565b5b0217905550600b60019054906101000a900473ffffffffffffffffffffffffffffffffffffffff1673ffffffffffffffffffffffffffffffffffffffff1663a9059cbb600260009054906101000a900473ffffffffffffffffffffffffffffffffffffffff166005546040518363ffffffff1660e01b81526004016105a9929190611fea565b6020604051808303816000875af11580156105c8573d6000803e3d6000fd5b505050506040513d601f19601f820116820180604052508101906105ec919061203f565b61062b576040517f08c379a0000000000000000000000000000000000000000000000000000000008152600401610622906120b8565b60405180910390fd5b600160009054906101000a900473ffffffffffffffffffffffffffffffffffffffff1673ffffffffffffffffffffffffffffffffffffffff167fcef18548c703cafca45ac8a5a4f701d242e688abd402fa54b3e8fdac943f242c426040516106939190611aa7565b60405180910390a2565b6000806000806000806000806000606060008060008054906101000a900473ffffffffffffffffffffffffffffffffffffffff16600160009054906101000a900473ffffffffffffffffffffffffffffffffffffffff16600260009054906101000a900473ffffffffffffffffffffffffffffffffffffffff16600354600454600554600654600754600b60009054906101000a900460ff16600a600b60159054906101000a900460ff16600b60169054906101000a900460ff1682805461076490612107565b80601f016020809104026020016040519081016040528092919081815260200182805461079090612107565b80156107dd5780601f106107b2576101008083540402835291602001916107dd565b820191906000526020600020905b8154815290600101906020018083116107c057829003601f168201915b505050505092509b509b509b509b509b509b509b509b509b509b509b509b50909192939495969798999a9b565b60065481565b60085481565b600b60009054906101000a900460ff1681565b60055481565b600160009054906101000a900473ffffffffffffffffffffffffffffffffffffffff1673ffffffffffffffffffffffffffffffffffffffff163373ffffffffffffffffffffffffffffffffffffffff16146108bf576040517f08c379a00000000000000000000000000000000000000000000000000000000081526004016108b690611f5e565b60405180910390fd5b6000815111610903576040517f08c379a00000000000000000000000000000000000000000000000000000000081526004016108fa90612184565b60405180910390fd5b80600a90816109129190612346565b507f2fd0fa79b09172ad37dab14c1f11972bf6939112d8f1d66068b864c293cf39b3816040516109429190611d67565b60405180910390a150565b600260009054906101000a900473ffffffffffffffffffffffffffffffffffffffff1681565b600b60159054906101000a900460ff1681565b600c818154811061099657600080fd5b90600052602060002090600202016000915090508060000154908060010154905082565b600160009054906101000a900473ffffffffffffffffffffffffffffffffffffffff1681565b600260009054906101000a900473ffffffffffffffffffffffffffffffffffffffff1673ffffffffffffffffffffffffffffffffffffffff163373ffffffffffffffffffffffffffffffffffffffff1614610a70576040517f08c379a0000000000000000000000000000000000000000000000000000000008152600401610a6790612464565b60405180910390fd5b60006003811115610a8457610a836118c4565b5b600b60009054906101000a900460ff166003811115610aa657610aa56118c4565b5b14610ae6576040517f08c379a0000000000000000000000000000000000000000000000000000000008152600401610add906124d0565b60405180910390fd5b600b60169054906101000a900460ff1615610b36576040517f08c379a0000000000000000000000000000000000000000000000000000000008152600401610b2d9061253c565b60405180910390fd5b60008211610b79576040517f08c379a0000000000000000000000000000000000000000000000000000000008152600401610b70906125a8565b60405180910390fd5b6001600b60166101000a81548160ff02191690831515021790555060008111610ba357601e610ba5565b805b6008819055503373ffffffffffffffffffffffffffffffffffffffff167fcad68677327357a99e8f08f78731a30ea3b1ce6c18c37ab9627d2469ed28d101604051610bef90612614565b60405180910390a2610bff61163d565b5050565b60095481565b60075481565b600b60169054906101000a900460ff1681565b600a8054610c2f90612107565b80601f0160208091040260200160405190810160405280929190818152602001828054610c5b90612107565b8015610ca85780601f10610c7d57610100808354040283529160200191610ca8565b820191906000526020600020905b815481529060010190602001808311610c8b57829003601f168201915b505050505081565b600160009054906101000a900473ffffffffffffffffffffffffffffffffffffffff1673ffffffffffffffffffffffffffffffffffffffff163373ffffffffffffffffffffffffffffffffffffffff161480610d595750600260009054906101000a900473ffffffffffffffffffffffffffffffffffffffff1673ffffffffffffffffffffffffffffffffffffffff163373ffffffffffffffffffffffffffffffffffffffff16145b610d98576040517f08c379a0000000000000000000000000000000000000000000000000000000008152600401610d8f90612680565b60405180910390fd5b60006003811115610dac57610dab6118c4565b5b600b60009054906101000a900460ff166003811115610dce57610dcd6118c4565b5b1480610e0d575060016003811115610de957610de86118c4565b5b600b60009054906101000a900460ff166003811115610e0b57610e0a6118c4565b5b145b610e4c576040517f08c379a0000000000000000000000000000000000000000000000000000000008152600401610e43906126ec565b60405180910390fd5b60016003811115610e6057610e5f6118c4565b5b600b60009054906101000a900460ff166003811115610e8257610e816118c4565b5b03610f8b57600b60019054906101000a900473ffffffffffffffffffffffffffffffffffffffff1673ffffffffffffffffffffffffffffffffffffffff1663a9059cbb600160009054906101000a900473ffffffffffffffffffffffffffffffffffffffff166005546040518363ffffffff1660e01b8152600401610f08929190611fea565b6020604051808303816000875af1158015610f27573d6000803e3d6000fd5b505050506040513d601f19601f82011682018060405250810190610f4b919061203f565b610f8a576040517f08c379a0000000000000000000000000000000000000000000000000000000008152600401610f8190612758565b60405180910390fd5b5b6003600b60006101000a81548160ff02191690836003811115610fb157610fb06118c4565b5b02179055503373ffffffffffffffffffffffffffffffffffffffff167ffab2b7f82959aa58a83804666a6c0eb98ef4ec938a314db9f0c72bfbb37f05ae42604051610ffc9190611aa7565b60405180910390a2565b600160009054906101000a900473ffffffffffffffffffffffffffffffffffffffff1673ffffffffffffffffffffffffffffffffffffffff163373ffffffffffffffffffffffffffffffffffffffff1614611096576040517f08c379a000000000000000000000000000000000000000000000000000000000815260040161108d90611f5e565b60405180910390fd5b600060038111156110aa576110a96118c4565b5b600b60009054906101000a900460ff1660038111156110cc576110cb6118c4565b5b1461110c576040517f08c379a0000000000000000000000000000000000000000000000000000000008152600401611103906124d0565b60405180910390fd5b600b60159054906101000a900460ff161561115c576040517f08c379a0000000000000000000000000000000000000000000000000000000008152600401611153906127c4565b60405180910390fd5b6001600b60156101000a81548160ff0219169083151502179055503373ffffffffffffffffffffffffffffffffffffffff167fcad68677327357a99e8f08f78731a30ea3b1ce6c18c37ab9627d2469ed28d1016040516111bb90612830565b60405180910390a26111cb61163d565b565b6060600c805480602002602001604051908101604052809291908181526020016000905b82821015611237578382906000526020600020906002020160405180604001604052908160008201548152602001600182015481525050815260200190600101906111f1565b50505050905090565b600260009054906101000a900473ffffffffffffffffffffffffffffffffffffffff1673ffffffffffffffffffffffffffffffffffffffff163373ffffffffffffffffffffffffffffffffffffffff16146112d0576040517f08c379a00000000000000000000000000000000000000000000000000000000081526004016112c790612464565b60405180910390fd5b600160038111156112e4576112e36118c4565b5b600b60009054906101000a900460ff166003811115611306576113056118c4565b5b14611346576040517f08c379a000000000000000000000000000000000000000000000000000000000815260040161133d90611fca565b60405180910390fd5b60075442111561138b576040517f08c379a00000000000000000000000000000000000000000000000000000000081526004016113829061289c565b60405180910390fd5b6009544210156113d0576040517f08c379a00000000000000000000000000000000000000000000000000000000081526004016113c790612908565b60405180910390fd5b600b60019054906101000a900473ffffffffffffffffffffffffffffffffffffffff1673ffffffffffffffffffffffffffffffffffffffff166323b872dd600260009054906101000a900473ffffffffffffffffffffffffffffffffffffffff16600160009054906101000a900473ffffffffffffffffffffffffffffffffffffffff166004546040518463ffffffff1660e01b815260040161147593929190612928565b6020604051808303816000875af1158015611494573d6000803e3d6000fd5b505050506040513d601f19601f820116820180604052508101906114b8919061203f565b6114f7576040517f08c379a00000000000000000000000000000000000000000000000000000000081526004016114ee906129ab565b60405180910390fd5b600c60405180604001604052806004548152602001428152509080600181540180825580915050600190039060005260206000209060020201600090919091909150600082015181600001556020820151816001015550506201518060085461156091906129fa565b4261156b9190612a3c565b600981905550600260009054906101000a900473ffffffffffffffffffffffffffffffffffffffff1673ffffffffffffffffffffffffffffffffffffffff167fc65a4e529c0450a515882508bea7ee3485fbfdf8436e0bd13dc38dfbc859b1cb600454426040516115dd929190611cfe565b60405180910390a2565b60035481565b60008054906101000a900473ffffffffffffffffffffffffffffffffffffffff1681565b60045481565b600b60019054906101000a900473ffffffffffffffffffffffffffffffffffffffff1681565b600b60159054906101000a900460ff1680156116655750600b60169054906101000a900460ff165b15611868574260068190555060036201518060085461168491906129fa565b61168e91906129fa565b426116999190612a3c565b600781905550620151806008546116b091906129fa565b426116bb9190612a3c565b600981905550600b60019054906101000a900473ffffffffffffffffffffffffffffffffffffffff1673ffffffffffffffffffffffffffffffffffffffff166323b872dd600260009054906101000a900473ffffffffffffffffffffffffffffffffffffffff16306005546040518463ffffffff1660e01b815260040161174493929190612928565b6020604051808303816000875af1158015611763573d6000803e3d6000fd5b505050506040513d601f19601f82011682018060405250810190611787919061203f565b6117c6576040517f08c379a00000000000000000000000000000000000000000000000000000000081526004016117bd90612abc565b60405180910390fd5b6001600b60006101000a81548160ff021916908360038111156117ec576117eb6118c4565b5b0217905550600260009054906101000a900473ffffffffffffffffffffffffffffffffffffffff1673ffffffffffffffffffffffffffffffffffffffff167f6858a32d7f1527aad606ebeedbd552c747b16c0ce2dff4bdf606c0d1bf23f70c60065460075460405161185f929190611cfe565b60405180910390a25b565b600073ffffffffffffffffffffffffffffffffffffffff82169050919050565b60006118958261186a565b9050919050565b6118a58161188a565b82525050565b6000819050919050565b6118be816118ab565b82525050565b7f4e487b7100000000000000000000000000000000000000000000000000000000600052602160045260246000fd5b60048110611904576119036118c4565b5b50565b6000819050611915826118f3565b919050565b600061192582611907565b9050919050565b6119358161191a565b82525050565b600081519050919050565b600082825260208201905092915050565b60005b8381101561197557808201518184015260208101905061195a565b60008484015250505050565b6000601f19601f8301169050919050565b600061199d8261193b565b6119a78185611946565b93506119b7818560208601611957565b6119c081611981565b840191505092915050565b60008115159050919050565b6119e0816119cb565b82525050565b6000610180820190506119fc600083018f61189c565b611a09602083018e61189c565b611a16604083018d61189c565b611a23606083018c6118b5565b611a30608083018b6118b5565b611a3d60a083018a6118b5565b611a4a60c08301896118b5565b611a5760e08301886118b5565b611a6561010083018761192c565b818103610120830152611a788186611992565b9050611a886101408301856119d7565b611a966101608301846119d7565b9d9c50505050505050505050505050565b6000602082019050611abc60008301846118b5565b92915050565b6000602082019050611ad7600083018461192c565b92915050565b6000604051905090565b600080fd5b600080fd5b600080fd5b600080fd5b7f4e487b7100000000000000000000000000000000000000000000000000000000600052604160045260246000fd5b611b3382611981565b810181811067ffffffffffffffff82111715611b5257611b51611afb565b5b80604052505050565b6000611b65611add565b9050611b718282611b2a565b919050565b600067ffffffffffffffff821115611b9157611b90611afb565b5b611b9a82611981565b9050602081019050919050565b82818337600083830152505050565b6000611bc9611bc484611b76565b611b5b565b905082815260208101848484011115611be557611be4611af6565b5b611bf0848285611ba7565b509392505050565b600082601f830112611c0d57611c0c611af1565b5b8135611c1d848260208601611bb6565b91505092915050565b600060208284031215611c3c57611c3b611ae7565b5b600082013567ffffffffffffffff811115611c5a57611c59611aec565b5b611c6684828501611bf8565b91505092915050565b6000602082019050611c84600083018461189c565b92915050565b6000602082019050611c9f60008301846119d7565b92915050565b611cae816118ab565b8114611cb957600080fd5b50565b600081359050611ccb81611ca5565b92915050565b600060208284031215611ce757611ce6611ae7565b5b6000611cf584828501611cbc565b91505092915050565b6000604082019050611d1360008301856118b5565b611d2060208301846118b5565b9392505050565b60008060408385031215611d3e57611d3d611ae7565b5b6000611d4c85828601611cbc565b9250506020611d5d85828601611cbc565b9150509250929050565b60006020820190508181036000830152611d818184611992565b905092915050565b600081519050919050565b600082825260208201905092915050565b6000819050602082019050919050565b611dbe816118ab565b82525050565b604082016000820151611dda6000850182611db5565b506020820151611ded6020850182611db5565b50505050565b6000611dff8383611dc4565b60408301905092915050565b6000602082019050919050565b6000611e2382611d89565b611e2d8185611d94565b9350611e3883611da5565b8060005b83811015611e69578151611e508882611df3565b9750611e5b83611e0b565b925050600181019050611e3c565b5085935050505092915050565b60006020820190508181036000830152611e908184611e18565b905092915050565b6000819050919050565b6000611ebd611eb8611eb38461186a565b611e98565b61186a565b9050919050565b6000611ecf82611ea2565b9050919050565b6000611ee182611ec4565b9050919050565b611ef181611ed6565b82525050565b6000602082019050611f0c6000830184611ee8565b92915050565b7f4e6f74206f776e65720000000000000000000000000000000000000000000000600082015250565b6000611f48600983611946565b9150611f5382611f12565b602082019050919050565b60006020820190508181036000830152611f7781611f3b565b9050919050565b7f4e6f742061637469766500000000000000000000000000000000000000000000600082015250565b6000611fb4600a83611946565b9150611fbf82611f7e565b602082019050919050565b60006020820190508181036000830152611fe381611fa7565b9050919050565b6000604082019050611fff600083018561189c565b61200c60208301846118b5565b9392505050565b61201c816119cb565b811461202757600080fd5b50565b60008151905061203981612013565b92915050565b60006020828403121561205557612054611ae7565b5b60006120638482850161202a565b91505092915050565b7f526566756e64206661696c656400000000000000000000000000000000000000600082015250565b60006120a2600d83611946565b91506120ad8261206c565b602082019050919050565b600060208201905081810360008301526120d181612095565b9050919050565b7f4e487b7100000000000000000000000000000000000000000000000000000000600052602260045260246000fd5b6000600282049050600182168061211f57607f821691505b602082108103612132576121316120d8565b5b50919050565b7f456d707479206861736800000000000000000000000000000000000000000000600082015250565b600061216e600a83611946565b915061217982612138565b602082019050919050565b6000602082019050818103600083015261219d81612161565b9050919050565b60008190508160005260206000209050919050565b60006020601f8301049050919050565b600082821b905092915050565b6000600883026122067fffffffffffffffffffffffffffffffffffffffffffffffffffffffffffffffff826121c9565b61221086836121c9565b95508019841693508086168417925050509392505050565b600061224361223e612239846118ab565b611e98565b6118ab565b9050919050565b6000819050919050565b61225d83612228565b6122716122698261224a565b8484546121d6565b825550505050565b600090565b612286612279565b612291818484612254565b505050565b5b818110156122b5576122aa60008261227e565b600181019050612297565b5050565b601f8211156122fa576122cb816121a4565b6122d4846121b9565b810160208510156122e3578190505b6122f76122ef856121b9565b830182612296565b50505b505050565b600082821c905092915050565b600061231d600019846008026122ff565b1980831691505092915050565b6000612336838361230c565b9150826002028217905092915050565b61234f8261193b565b67ffffffffffffffff81111561236857612367611afb565b5b6123728254612107565b61237d8282856122b9565b600060209050601f8311600181146123b0576000841561239e578287015190505b6123a8858261232a565b865550612410565b601f1984166123be866121a4565b60005b828110156123e6578489015182556001820191506020850194506020810190506123c1565b8683101561240357848901516123ff601f89168261230c565b8355505b6001600288020188555050505b505050505050565b7f4e6f742075736572000000000000000000000000000000000000000000000000600082015250565b600061244e600883611946565b915061245982612418565b602082019050919050565b6000602082019050818103600083015261247d81612441565b9050919050565b7f416c72656164792070726f636573736564000000000000000000000000000000600082015250565b60006124ba601183611946565b91506124c582612484565b602082019050919050565b600060208201905081810360008301526124e9816124ad565b9050919050565b7f5573657220616c7265616479207369676e656400000000000000000000000000600082015250565b6000612526601383611946565b9150612531826124f0565b602082019050919050565b6000602082019050818103600083015261255581612519565b9050919050565b7f496e76616c6964206475726174696f6e00000000000000000000000000000000600082015250565b6000612592601083611946565b915061259d8261255c565b602082019050919050565b600060208201905081810360008301526125c181612585565b9050919050565b7f5573657200000000000000000000000000000000000000000000000000000000600082015250565b60006125fe600483611946565b9150612609826125c8565b602082019050919050565b6000602082019050818103600083015261262d816125f1565b9050919050565b7f4e6f74207061727469636970616e740000000000000000000000000000000000600082015250565b600061266a600f83611946565b915061267582612634565b602082019050919050565b600060208201905081810360008301526126998161265d565b9050919050565b7f43616e6e6f742063616e63656c00000000000000000000000000000000000000600082015250565b60006126d6600d83611946565b91506126e1826126a0565b602082019050919050565b60006020820190508181036000830152612705816126c9565b9050919050565b7f4465706f736974207472616e7366657272656420746f206f776e657200000000600082015250565b6000612742601c83611946565b915061274d8261270c565b602082019050919050565b6000602082019050818103600083015261277181612735565b9050919050565b7f4f776e657220616c7265616479207369676e6564000000000000000000000000600082015250565b60006127ae601483611946565b91506127b982612778565b602082019050919050565b600060208201905081810360008301526127dd816127a1565b9050919050565b7f4f776e6572000000000000000000000000000000000000000000000000000000600082015250565b600061281a600583611946565b9150612825826127e4565b602082019050919050565b600060208201905081810360008301526128498161280d565b9050919050565b7f436f6e7472616374206578706972656400000000000000000000000000000000600082015250565b6000612886601083611946565b915061289182612850565b602082019050919050565b600060208201905081810360008301526128b581612879565b9050919050565b7f546f6f206561726c7920666f72207061796d656e740000000000000000000000600082015250565b60006128f2601583611946565b91506128fd826128bc565b602082019050919050565b60006020820190508181036000830152612921816128e5565b9050919050565b600060608201905061293d600083018661189c565b61294a602083018561189c565b61295760408301846118b5565b949350505050565b7f5061796d656e74206661696c6564000000000000000000000000000000000000600082015250565b6000612995600e83611946565b91506129a08261295f565b602082019050919050565b600060208201905081810360008301526129c481612988565b9050919050565b7f4e487b7100000000000000000000000000000000000000000000000000000000600052601160045260246000fd5b6000612a05826118ab565b9150612a10836118ab565b9250828202612a1e816118ab565b91508282048414831517612a3557612a346129cb565b5b5092915050565b6000612a47826118ab565b9150612a52836118ab565b9250828201905080821115612a6a57612a696129cb565b5b92915050565b7f4465706f736974206661696c6564000000000000000000000000000000000000600082015250565b6000612aa6600e83611946565b9150612ab182612a70565b602082019050919050565b60006020820190508181036000830152612ad581612a99565b905091905056fea26469706673582212208e1554c8be98780008942ef69d2bbc96b5feab7f722b4b7c121444dc9819245664736f6c63430008140033",
  "linkReferences": {},
  "deployedLinkReferences": {}
}