{
  "_format": "hh-sol-artifact-1",
  "contractName": "CarPayToken",
  "sourceName": "contracts/CarPayToken.sol",
  "abi": [
    {
      "inputs": [
        {
          "internalType": "uint256",
          "name": "_initialSupply",
          "type": "uint256"
        }
      ],
      "stateMutability": "nonpayable",
      "type": "constructor"
    },
    {
      "anonymous": false,
      "inputs": [
        {
          "indexed": true,
          "internalType": "address",
          "name": "owner",
          "type": "address"
        },
        {
          "indexed": true,
          "internalType": "address",
          "name": "spender",
          "type": "address"
        },
        {
          "indexed": false,
          "internalType": "uint256",
          "name": "amount",
          "type": "uint256"
        }
      ],
      "name": "Approval",
      "type": "event"
    },
    {
      "anonymous": false,
      "inputs": [
        {
          "indexed": true,
          "internalType": "address",
          "name": "buyer",
          "type": "address"
        },
        {
          "indexed": false,
          "internalType": "uint256",
          "name": "ethSpent",
          "type": "uint256"
        },
        {
          "indexed": false,
          "internalType": "uint256",
          "name": "tokensReceived",
          "type": "uint256"
        }
      ],
      "name": "TokensPurchased",
      "type": "event"
    },
    {
      "anonymous": false,
      "inputs": [
        {
          "indexed": true,
          "internalType": "address",
          "name": "from",
          "type": "address"
        },
        {
          "indexed": true,
          "internalType": "address",
          "name": "to",
          "type": "address"
        },
        {
          "indexed": false,
          "internalType": "uint256",
          "name": "amount",
          "type": "uint256"
        }
      ],
      "name": "Transfer",
      "type": "event"
    },
    {
      "inputs": [
        {
          "internalType": "address",
          "name": "",
          "type": "address"
        },
        {
          "internalType": "address",
          "name": "",
          "type": "address"
        }
      ],
      "name": "allowance",
      "outputs": [
        {
          "internalType": "uint256",
          "name": "",
          "type": "uint256"
        }
      ],
      "stateMutability": "view",
      "type": "function"
    },
    {
      "inputs": [
        {
          "internalType": "address",
          "name": "_spender",
          "type": "address"
        },
        {
          "internalType": "uint256",
          "name": "_amount",
          "type": "uint256"
        }
      ],
      "name": "approve",
      "outputs": [
        {
          "internalType": "bool",
          "name": "",
          "type": "bool"
        }
      ],
      "stateMutability": "nonpayable",
      "type": "function"
    },
    {
      "inputs": [
        {
          "internalType": "address",
          "name": "",
          "type": "address"
        }
      ],
      "name": "balanceOf",
      "outputs": [
        {
          "internalType": "uint256",
          "name": "",
          "type": "uint256"
        }
      ],
      "stateMutability": "view",
      "type": "function"
    },
    {
      "inputs": [
        {
          "internalType": "uint256",
          "name": "_amount",
          "type": "uint256"
        }
      ],
      "name": "burn",
      "outputs": [],
      "stateMutability": "nonpayable",
      "type": "function"
    },
    {
      "inputs": [],
      "name": "buyTokens",
      "outputs": [],
      "stateMutability": "payable",
      "type": "function"
    },
    {
      "inputs": [],
      "name": "decimals",
      "outputs": [
        {
          "internalType": "uint8",
          "name": "",
          "type": "uint8"
        }
      ],
      "stateMutability": "view",
      "type": "function"
    },
    {
      "inputs": [
        {
          "internalType": "address",
          "name": "_to",
          "type": "address"
        },
        {
          "internalType": "uint256",
          "name": "_amount",
          "type": "uint256"
        }
      ],
      "name": "mint",
      "outputs": [],
      "stateMutability": "nonpayable",
      "type": "function"
    },
    {
      "inputs": [],
      "name": "name",
      "outputs": [
        {
          "internalType": "string",
          "name": "",
          "type": "string"
        }
      ],
      "stateMutability": "view",
      "type": "function"
    },
    {
      "inputs": [],
      "name": "owner",
      "outputs": [
        {
          "internalType": "address",
          "name": "",
          "type": "address"
        }
      ],
      "stateMutability": "view",
      "type": "function"
    },
    {
      "inputs": [
        {
          "internalType": "uint256",
          "name": "_newPrice",
          "type": "uint256"
        }
      ],
      "name": "setTokenPrice",
      "outputs": [],
      "stateMutability": "nonpayable",
      "type": "function"
    },
    {
      "inputs": [],
      "name": "symbol",
      "outputs": [
        {
          "internalType": "string",
          "name": "",
          "type": "string"
        }
      ],
      "stateMutability": "view",
      "type": "function"
    },
    {
      "inputs": [],
      "name": "tokenPrice",
      "outputs": [
        {
          "internalType": "uint256",
          "name": "",
          "type": "uint256"
        }
      ],
      "stateMutability": "view",
      "type": "function"
    },
    {
      "inputs": [],
      "name": "totalSupply",
      "outputs": [
        {
          "internalType": "uint256",
          "name": "",
          "type": "uint256"
        }
      ],
      "stateMutability": "view",
      "type": "function"
    },
    {
      "inputs": [
        {
          "internalType": "address",
          "name": "_to",
          "type": "address"
        },
        {
          "internalType": "uint256",
          "name": "_amount",
          "type": "uint256"
        }
      ],
      "name": "transfer",
      "outputs": [
        {
          "internalType": "bool",
          "name": "",
          "type": "bool"
        }
      ],
      "stateMutability": "nonpayable",
      "type": "function"
    },
    {
      "inputs": [
        {
          "internalType": "address",
          "name": "_from",
          "type": "address"
        },
        {
          "internalType": "address",
          "name": "_to",
          "type": "address"
        },
        {
          "internalType": "uint256",
          "name": "_amount",
          "type": "uint256"
        }
      ],
      "name": "transferFrom",
      "outputs": [
        {
          "internalType": "bool",
          "name": "",
          "type": "bool"
        }
      ],
      "stateMutability": "nonpayable",
      "type": "function"
    },
    {
      "inputs": [
        {
          "internalType": "uint256",
          "name": "_amount",
          "type": "uint256"
        }
      ],
      "name": "withdrawETH",
      "outputs": [],
      "stateMutability": "nonpayable",
      "type": "function"
    },
    {
      "stateMutability": "payable",
      "type": "receive"
    }
  ],
  "bytecode": "0x60806040526040518060400160405280600c81526020017f43617250617920546f6b656e0000000000000000000000000000000000000000815250600090816200004a9190620004d9565b506040518060400160405280600381526020017f435054000000000000000000000000000000000000000000000000000000000081525060019081620000919190620004d9565b506012600260006101000a81548160ff021916908360ff160217905550348015620000bb57600080fd5b5060405162002720380380620027208339818101604052810190620000e19190620005f6565b33600560006101000a81548173ffffffffffffffffffffffffffffffffffffffff021916908373ffffffffffffffffffffffffffffffffffffffff16021790555066010506650cf000600481905550600260009054906101000a900460ff1660ff16600a620001519190620007ab565b816200015e9190620007fc565b60038190555060035460066000600560009054906101000a900473ffffffffffffffffffffffffffffffffffffffff1673ffffffffffffffffffffffffffffffffffffffff1673ffffffffffffffffffffffffffffffffffffffff16815260200190815260200160002081905550600560009054906101000a900473ffffffffffffffffffffffffffffffffffffffff1673ffffffffffffffffffffffffffffffffffffffff16600073ffffffffffffffffffffffffffffffffffffffff167fddf252ad1be2c89b69c2b068fc378daa952ba7f163c4a11628f55a4df523b3ef60035460405162000250919062000858565b60405180910390a35062000875565b600081519050919050565b7f4e487b7100000000000000000000000000000000000000000000000000000000600052604160045260246000fd5b7f4e487b7100000000000000000000000000000000000000000000000000000000600052602260045260246000fd5b60006002820490506001821680620002e157607f821691505b602082108103620002f757620002f662000299565b5b50919050565b60008190508160005260206000209050919050565b60006020601f8301049050919050565b600082821b905092915050565b600060088302620003617fffffffffffffffffffffffffffffffffffffffffffffffffffffffffffffffff8262000322565b6200036d868362000322565b95508019841693508086168417925050509392505050565b6000819050919050565b6000819050919050565b6000620003ba620003b4620003ae8462000385565b6200038f565b62000385565b9050919050565b6000819050919050565b620003d68362000399565b620003ee620003e582620003c1565b8484546200032f565b825550505050565b600090565b62000405620003f6565b62000412818484620003cb565b505050565b5b818110156200043a576200042e600082620003fb565b60018101905062000418565b5050565b601f82111562000489576200045381620002fd565b6200045e8462000312565b810160208510156200046e578190505b620004866200047d8562000312565b83018262000417565b50505b505050565b600082821c905092915050565b6000620004ae600019846008026200048e565b1980831691505092915050565b6000620004c983836200049b565b9150826002028217905092915050565b620004e4826200025f565b67ffffffffffffffff8111156200050057620004ff6200026a565b5b6200050c8254620002c8565b620005198282856200043e565b600060209050601f8311600181146200055157600084156200053c578287015190505b620005488582620004bb565b865550620005b8565b601f1984166200056186620002fd565b60005b828110156200058b5784890151825560018201915060208501945060208101905062000564565b86831015620005ab5784890151620005a7601f8916826200049b565b8355505b6001600288020188555050505b505050505050565b600080fd5b620005d08162000385565b8114620005dc57600080fd5b50565b600081519050620005f081620005c5565b92915050565b6000602082840312156200060f576200060e620005c0565b5b60006200061f84828501620005df565b91505092915050565b7f4e487b7100000000000000000000000000000000000000000000000000000000600052601160045260246000fd5b60008160011c9050919050565b6000808291508390505b6001851115620006b6578086048111156200068e576200068d62000628565b5b60018516156200069e5780820291505b8081029050620006ae8562000657565b94506200066e565b94509492505050565b600082620006d15760019050620007a4565b81620006e15760009050620007a4565b8160018114620006fa576002811462000705576200073b565b6001915050620007a4565b60ff8411156200071a576200071962000628565b5b8360020a91508482111562000734576200073362000628565b5b50620007a4565b5060208310610133831016604e8410600b8410161715620007755782820a9050838111156200076f576200076e62000628565b5b620007a4565b62000784848484600162000664565b925090508184048111156200079e576200079d62000628565b5b81810290505b9392505050565b6000620007b88262000385565b9150620007c58362000385565b9250620007f47fffffffffffffffffffffffffffffffffffffffffffffffffffffffffffffffff8484620006bf565b905092915050565b6000620008098262000385565b9150620008168362000385565b9250828202620008268162000385565b9150828204841483151762000840576200083f62000628565b5b5092915050565b620008528162000385565b82525050565b60006020820190506200086f600083018462000847565b92915050565b611e9b80620008856000396000f3fe6080604052600436106100f75760003560e01c806370a082311161008a578063a9059cbb11610059578063a9059cbb1461033f578063d0febe4c1461037c578063dd62ed3e14610386578063f14210a6146103c357610106565b806370a08231146102815780637ff9b596146102be5780638da5cb5b146102e957806395d89b411461031457610106565b8063313ce567116100c6578063313ce567146101db57806340c10f191461020657806342966c681461022f5780636a61e5fc1461025857610106565b806306fdde031461010b578063095ea7b31461013657806318160ddd1461017357806323b872dd1461019e57610106565b36610106576101046103ec565b005b600080fd5b34801561011757600080fd5b506101206106b6565b60405161012d919061151c565b60405180910390f35b34801561014257600080fd5b5061015d600480360381019061015891906115d7565b610744565b60405161016a9190611632565b60405180910390f35b34801561017f57600080fd5b506101886108a4565b604051610195919061165c565b60405180910390f35b3480156101aa57600080fd5b506101c560048036038101906101c09190611677565b6108aa565b6040516101d29190611632565b60405180910390f35b3480156101e757600080fd5b506101f0610c0b565b6040516101fd91906116e6565b60405180910390f35b34801561021257600080fd5b5061022d600480360381019061022891906115d7565b610c1e565b005b34801561023b57600080fd5b5061025660048036038101906102519190611701565b610e25565b005b34801561026457600080fd5b5061027f600480360381019061027a9190611701565b610fae565b005b34801561028d57600080fd5b506102a860048036038101906102a3919061172e565b611048565b6040516102b5919061165c565b60405180910390f35b3480156102ca57600080fd5b506102d3611060565b6040516102e0919061165c565b60405180910390f35b3480156102f557600080fd5b506102fe611066565b60405161030b919061176a565b60405180910390f35b34801561032057600080fd5b5061032961108c565b604051610336919061151c565b60405180910390f35b34801561034b57600080fd5b50610366600480360381019061036191906115d7565b61111a565b6040516103739190611632565b60405180910390f35b6103846103ec565b005b34801561039257600080fd5b506103ad60048036038101906103a89190611785565b611328565b6040516103ba919061165c565b60405180910390f35b3480156103cf57600080fd5b506103ea60048036038101906103e59190611701565b61134d565b005b6000341161042f576040517f08c379a000000000000000000000000000000000000000000000000000000000815260040161042690611811565b60405180910390fd5b6000600454600260009054906101000a900460ff1660ff16600a6104539190611993565b3461045e91906119de565b6104689190611a4f565b90508060066000600560009054906101000a900473ffffffffffffffffffffffffffffffffffffffff1673ffffffffffffffffffffffffffffffffffffffff1673ffffffffffffffffffffffffffffffffffffffff16815260200190815260200160002054101561050e576040517f08c379a000000000000000000000000000000000000000000000000000000000815260040161050590611acc565b60405180910390fd5b8060066000600560009054906101000a900473ffffffffffffffffffffffffffffffffffffffff1673ffffffffffffffffffffffffffffffffffffffff1673ffffffffffffffffffffffffffffffffffffffff168152602001908152602001600020600082825461057f9190611aec565b9250508190555080600660003373ffffffffffffffffffffffffffffffffffffffff1673ffffffffffffffffffffffffffffffffffffffff16815260200190815260200160002060008282546105d59190611b20565b925050819055503373ffffffffffffffffffffffffffffffffffffffff16600560009054906101000a900473ffffffffffffffffffffffffffffffffffffffff1673ffffffffffffffffffffffffffffffffffffffff167fddf252ad1be2c89b69c2b068fc378daa952ba7f163c4a11628f55a4df523b3ef8360405161065b919061165c565b60405180910390a33373ffffffffffffffffffffffffffffffffffffffff167f8fafebcaf9d154343dad25669bfa277f4fbacd7ac6b0c4fed522580e040a0f3334836040516106ab929190611b54565b60405180910390a250565b600080546106c390611bac565b80601f01602080910402602001604051908101604052809291908181526020018280546106ef90611bac565b801561073c5780601f106107115761010080835404028352916020019161073c565b820191906000526020600020905b81548152906001019060200180831161071f57829003601f168201915b505050505081565b60008073ffffffffffffffffffffffffffffffffffffffff168373ffffffffffffffffffffffffffffffffffffffff16036107b4576040517f08c379a00000000000000000000000000000000000000000000000000000000081526004016107ab90611c29565b60405180910390fd5b81600760003373ffffffffffffffffffffffffffffffffffffffff1673ffffffffffffffffffffffffffffffffffffffff16815260200190815260200160002060008573ffffffffffffffffffffffffffffffffffffffff1673ffffffffffffffffffffffffffffffffffffffff168152602001908152602001600020819055508273ffffffffffffffffffffffffffffffffffffffff163373ffffffffffffffffffffffffffffffffffffffff167f8c5be1e5ebec7d5bd14f71427d1e84f3dd0314c0f7b2291e5b200ac8c7c3b92584604051610892919061165c565b60405180910390a36001905092915050565b60035481565b600081600660008673ffffffffffffffffffffffffffffffffffffffff1673ffffffffffffffffffffffffffffffffffffffff16815260200190815260200160002054101561092e576040517f08c379a000000000000000000000000000000000000000000000000000000000815260040161092590611c95565b60405180910390fd5b81600760008673ffffffffffffffffffffffffffffffffffffffff1673ffffffffffffffffffffffffffffffffffffffff16815260200190815260200160002060003373ffffffffffffffffffffffffffffffffffffffff1673ffffffffffffffffffffffffffffffffffffffff1681526020019081526020016000205410156109ed576040517f08c379a00000000000000000000000000000000000000000000000000000000081526004016109e490611d01565b60405180910390fd5b600073ffffffffffffffffffffffffffffffffffffffff168373ffffffffffffffffffffffffffffffffffffffff1603610a5c576040517f08c379a0000000000000000000000000000000000000000000000000000000008152600401610a5390611d6d565b60405180910390fd5b81600660008673ffffffffffffffffffffffffffffffffffffffff1673ffffffffffffffffffffffffffffffffffffffff1681526020019081526020016000206000828254610aab9190611aec565b9250508190555081600660008573ffffffffffffffffffffffffffffffffffffffff1673ffffffffffffffffffffffffffffffffffffffff1681526020019081526020016000206000828254610b019190611b20565b9250508190555081600760008673ffffffffffffffffffffffffffffffffffffffff1673ffffffffffffffffffffffffffffffffffffffff16815260200190815260200160002060003373ffffffffffffffffffffffffffffffffffffffff1673ffffffffffffffffffffffffffffffffffffffff1681526020019081526020016000206000828254610b949190611aec565b925050819055508273ffffffffffffffffffffffffffffffffffffffff168473ffffffffffffffffffffffffffffffffffffffff167fddf252ad1be2c89b69c2b068fc378daa952ba7f163c4a11628f55a4df523b3ef84604051610bf8919061165c565b60405180910390a3600190509392505050565b600260009054906101000a900460ff1681565b600560009054906101000a900473ffffffffffffffffffffffffffffffffffffffff1673ffffffffffffffffffffffffffffffffffffffff163373ffffffffffffffffffffffffffffffffffffffff1614610cae576040517f08c379a0000000000000000000000000000000000000000000000000000000008152600401610ca590611dd9565b60405180910390fd5b600073ffffffffffffffffffffffffffffffffffffffff168273ffffffffffffffffffffffffffffffffffffffff1603610d1d576040517f08c379a0000000000000000000000000000000000000000000000000000000008152600401610d1490611d6d565b60405180910390fd5b6000600260009054906101000a900460ff1660ff16600a610d3e9190611993565b82610d4991906119de565b90508060036000828254610d5d9190611b20565b9250508190555080600660008573ffffffffffffffffffffffffffffffffffffffff1673ffffffffffffffffffffffffffffffffffffffff1681526020019081526020016000206000828254610db39190611b20565b925050819055508273ffffffffffffffffffffffffffffffffffffffff16600073ffffffffffffffffffffffffffffffffffffffff167fddf252ad1be2c89b69c2b068fc378daa952ba7f163c4a11628f55a4df523b3ef83604051610e18919061165c565b60405180910390a3505050565b6000600260009054906101000a900460ff1660ff16600a610e469190611993565b82610e5191906119de565b905080600660003373ffffffffffffffffffffffffffffffffffffffff1673ffffffffffffffffffffffffffffffffffffffff168152602001908152602001600020541015610ed5576040517f08c379a0000000000000000000000000000000000000000000000000000000008152600401610ecc90611c95565b60405180910390fd5b80600660003373ffffffffffffffffffffffffffffffffffffffff1673ffffffffffffffffffffffffffffffffffffffff1681526020019081526020016000206000828254610f249190611aec565b925050819055508060036000828254610f3d9190611aec565b92505081905550600073ffffffffffffffffffffffffffffffffffffffff163373ffffffffffffffffffffffffffffffffffffffff167fddf252ad1be2c89b69c2b068fc378daa952ba7f163c4a11628f55a4df523b3ef83604051610fa2919061165c565b60405180910390a35050565b600560009054906101000a900473ffffffffffffffffffffffffffffffffffffffff1673ffffffffffffffffffffffffffffffffffffffff163373ffffffffffffffffffffffffffffffffffffffff161461103e576040517f08c379a000000000000000000000000000000000000000000000000000000000815260040161103590611dd9565b60405180910390fd5b8060048190555050565b60066020528060005260406000206000915090505481565b60045481565b600560009054906101000a900473ffffffffffffffffffffffffffffffffffffffff1681565b6001805461109990611bac565b80601f01602080910402602001604051908101604052809291908181526020018280546110c590611bac565b80156111125780601f106110e757610100808354040283529160200191611112565b820191906000526020600020905b8154815290600101906020018083116110f557829003601f168201915b505050505081565b600081600660003373ffffffffffffffffffffffffffffffffffffffff1673ffffffffffffffffffffffffffffffffffffffff16815260200190815260200160002054101561119e576040517f08c379a000000000000000000000000000000000000000000000000000000000815260040161119590611c95565b60405180910390fd5b600073ffffffffffffffffffffffffffffffffffffffff168373ffffffffffffffffffffffffffffffffffffffff160361120d576040517f08c379a000000000000000000000000000000000000000000000000000000000815260040161120490611d6d565b60405180910390fd5b81600660003373ffffffffffffffffffffffffffffffffffffffff1673ffffffffffffffffffffffffffffffffffffffff168152602001908152602001600020600082825461125c9190611aec565b9250508190555081600660008573ffffffffffffffffffffffffffffffffffffffff1673ffffffffffffffffffffffffffffffffffffffff16815260200190815260200160002060008282546112b29190611b20565b925050819055508273ffffffffffffffffffffffffffffffffffffffff163373ffffffffffffffffffffffffffffffffffffffff167fddf252ad1be2c89b69c2b068fc378daa952ba7f163c4a11628f55a4df523b3ef84604051611316919061165c565b60405180910390a36001905092915050565b6007602052816000526040600020602052806000526040600020600091509150505481565b600560009054906101000a900473ffffffffffffffffffffffffffffffffffffffff1673ffffffffffffffffffffffffffffffffffffffff163373ffffffffffffffffffffffffffffffffffffffff16146113dd576040517f08c379a00000000000000000000000000000000000000000000000000000000081526004016113d490611dd9565b60405180910390fd5b47811115611420576040517f08c379a000000000000000000000000000000000000000000000000000000000815260040161141790611e45565b60405180910390fd5b600560009054906101000a900473ffffffffffffffffffffffffffffffffffffffff1673ffffffffffffffffffffffffffffffffffffffff166108fc829081150290604051600060405180830381858888f19350505050158015611488573d6000803e3d6000fd5b5050565b600081519050919050565b600082825260208201905092915050565b60005b838110156114c65780820151818401526020810190506114ab565b60008484015250505050565b6000601f19601f8301169050919050565b60006114ee8261148c565b6114f88185611497565b93506115088185602086016114a8565b611511816114d2565b840191505092915050565b6000602082019050818103600083015261153681846114e3565b905092915050565b600080fd5b600073ffffffffffffffffffffffffffffffffffffffff82169050919050565b600061156e82611543565b9050919050565b61157e81611563565b811461158957600080fd5b50565b60008135905061159b81611575565b92915050565b6000819050919050565b6115b4816115a1565b81146115bf57600080fd5b50565b6000813590506115d1816115ab565b92915050565b600080604083850312156115ee576115ed61153e565b5b60006115fc8582860161158c565b925050602061160d858286016115c2565b9150509250929050565b60008115159050919050565b61162c81611617565b82525050565b60006020820190506116476000830184611623565b92915050565b611656816115a1565b82525050565b6000602082019050611671600083018461164d565b92915050565b6000806000606084860312156116905761168f61153e565b5b600061169e8682870161158c565b93505060206116af8682870161158c565b92505060406116c0868287016115c2565b9150509250925092565b600060ff82169050919050565b6116e0816116ca565b82525050565b60006020820190506116fb60008301846116d7565b92915050565b6000602082840312156117175761171661153e565b5b6000611725848285016115c2565b91505092915050565b6000602082840312156117445761174361153e565b5b60006117528482850161158c565b91505092915050565b61176481611563565b82525050565b600060208201905061177f600083018461175b565b92915050565b6000806040838503121561179c5761179b61153e565b5b60006117aa8582860161158c565b92505060206117bb8582860161158c565b9150509250929050565b7f53656e642045544820746f2062757920746f6b656e7300000000000000000000600082015250565b60006117fb601683611497565b9150611806826117c5565b602082019050919050565b6000602082019050818103600083015261182a816117ee565b9050919050565b7f4e487b7100000000000000000000000000000000000000000000000000000000600052601160045260246000fd5b60008160011c9050919050565b6000808291508390505b60018511156118b75780860481111561189357611892611831565b5b60018516156118a25780820291505b80810290506118b085611860565b9450611877565b94509492505050565b6000826118d0576001905061198c565b816118de576000905061198c565b81600181146118f457600281146118fe5761192d565b600191505061198c565b60ff8411156119105761190f611831565b5b8360020a91508482111561192757611926611831565b5b5061198c565b5060208310610133831016604e8410600b84101617156119625782820a90508381111561195d5761195c611831565b5b61198c565b61196f848484600161186d565b9250905081840481111561198657611985611831565b5b81810290505b9392505050565b600061199e826115a1565b91506119a9836115a1565b92506119d67fffffffffffffffffffffffffffffffffffffffffffffffffffffffffffffffff84846118c0565b905092915050565b60006119e9826115a1565b91506119f4836115a1565b9250828202611a02816115a1565b91508282048414831517611a1957611a18611831565b5b5092915050565b7f4e487b7100000000000000000000000000000000000000000000000000000000600052601260045260246000fd5b6000611a5a826115a1565b9150611a65836115a1565b925082611a7557611a74611a20565b5b828204905092915050565b7f4e6f7420656e6f75676820746f6b656e7320696e20636f6e7472616374000000600082015250565b6000611ab6601d83611497565b9150611ac182611a80565b602082019050919050565b60006020820190508181036000830152611ae581611aa9565b9050919050565b6000611af7826115a1565b9150611b02836115a1565b9250828203905081811115611b1a57611b19611831565b5b92915050565b6000611b2b826115a1565b9150611b36836115a1565b9250828201905080821115611b4e57611b4d611831565b5b92915050565b6000604082019050611b69600083018561164d565b611b76602083018461164d565b9392505050565b7f4e487b7100000000000000000000000000000000000000000000000000000000600052602260045260246000fd5b60006002820490506001821680611bc457607f821691505b602082108103611bd757611bd6611b7d565b5b50919050565b7f496e76616c6964207370656e6465720000000000000000000000000000000000600082015250565b6000611c13600f83611497565b9150611c1e82611bdd565b602082019050919050565b60006020820190508181036000830152611c4281611c06565b9050919050565b7f496e73756666696369656e742062616c616e6365000000000000000000000000600082015250565b6000611c7f601483611497565b9150611c8a82611c49565b602082019050919050565b60006020820190508181036000830152611cae81611c72565b9050919050565b7f416c6c6f77616e63652065786365656465640000000000000000000000000000600082015250565b6000611ceb601283611497565b9150611cf682611cb5565b602082019050919050565b60006020820190508181036000830152611d1a81611cde565b9050919050565b7f496e76616c696420616464726573730000000000000000000000000000000000600082015250565b6000611d57600f83611497565b9150611d6282611d21565b602082019050919050565b60006020820190508181036000830152611d8681611d4a565b9050919050565b7f4f6e6c79206f776e65722063616e2063616c6c20746869730000000000000000600082015250565b6000611dc3601883611497565b9150611dce82611d8d565b602082019050919050565b60006020820190508181036000830152611df281611db6565b9050919050565b7f496e73756666696369656e74204554482062616c616e63650000000000000000600082015250565b6000611e2f601883611497565b9150611e3a82611df9565b602082019050919050565b60006020820190508181036000830152611e5e81611e22565b905091905056fea26469706673582212202fe0772dfb90996f1ba3540260dccea486517cafe0f6cbfa2b151ecae89b878f64736f6c63430008140033",
  "linkReferences": {},
  "deployedLinkReferences": {}
}